{
  "contractName": "HumanInfo",
  "abi": [
    {
      "constant": true,
      "inputs": [],
      "name": "owner",
      "outputs": [
        {
          "name": "",
          "type": "address"
        }
      ],
      "payable": false,
      "stateMutability": "view",
      "type": "function"
    },
    {
      "inputs": [],
      "payable": false,
      "stateMutability": "nonpayable",
      "type": "constructor"
    },
    {
      "constant": false,
      "inputs": [
        {
          "name": "_publicKey",
          "type": "string"
        },
        {
          "name": "_info",
          "type": "string"
        },
        {
          "name": "_sign",
          "type": "string"
        }
      ],
      "name": "addHuman",
      "outputs": [],
      "payable": false,
      "stateMutability": "nonpayable",
      "type": "function"
    },
    {
      "constant": true,
      "inputs": [
        {
          "name": "_publicKey",
          "type": "string"
        }
      ],
      "name": "getHuman",
      "outputs": [
        {
          "name": "_info",
          "type": "string"
        },
        {
          "name": "_sign",
          "type": "string"
        }
      ],
      "payable": false,
      "stateMutability": "view",
      "type": "function"
    },
    {
      "constant": false,
      "inputs": [
        {
          "name": "_account",
          "type": "string"
        }
      ],
      "name": "deleteHuman",
      "outputs": [],
      "payable": false,
      "stateMutability": "nonpayable",
      "type": "function"
    }
  ],
  "bytecode": "0x608060405234801561001057600080fd5b50336000806101000a81548173ffffffffffffffffffffffffffffffffffffffff021916908373ffffffffffffffffffffffffffffffffffffffff160217905550610828806100606000396000f3fe608060405260043610610057576000357c0100000000000000000000000000000000000000000000000000000000900463ffffffff1680633a33bdcf1461005c5780638da5cb5b14610252578063fe599572146102a9575b600080fd5b34801561006857600080fd5b506102506004803603606081101561007f57600080fd5b810190808035906020019064010000000081111561009c57600080fd5b8201836020820111156100ae57600080fd5b803590602001918460018302840111640100000000831117156100d057600080fd5b91908080601f016020809104026020016040519081016040528093929190818152602001838380828437600081840152601f19601f8201169050808301925050505050505091929192908035906020019064010000000081111561013357600080fd5b82018360208201111561014557600080fd5b8035906020019184600183028401116401000000008311171561016757600080fd5b91908080601f016020809104026020016040519081016040528093929190818152602001838380828437600081840152601f19601f820116905080830192505050505050509192919290803590602001906401000000008111156101ca57600080fd5b8201836020820111156101dc57600080fd5b803590602001918460018302840111640100000000831117156101fe57600080fd5b91908080601f016020809104026020016040519081016040528093929190818152602001838380828437600081840152601f19601f820116905080830192505050505050509192919290505050610456565b005b34801561025e57600080fd5b50610267610518565b604051808273ffffffffffffffffffffffffffffffffffffffff1673ffffffffffffffffffffffffffffffffffffffff16815260200191505060405180910390f35b3480156102b557600080fd5b5061036f600480360360208110156102cc57600080fd5b81019080803590602001906401000000008111156102e957600080fd5b8201836020820111156102fb57600080fd5b8035906020019184600183028401116401000000008311171561031d57600080fd5b91908080601f016020809104026020016040519081016040528093929190818152602001838380828437600081840152601f19601f82011690508083019250505050505050919291929050505061053d565b604051808060200180602001838103835285818151815260200191508051906020019080838360005b838110156103b3578082015181840152602081019050610398565b50505050905090810190601f1680156103e05780820380516001836020036101000a031916815260200191505b50838103825284818151815260200191508051906020019080838360005b838110156104195780820151818401526020810190506103fe565b50505050905090810190601f1680156104465780820380516001836020036101000a031916815260200191505b5094505050505060405180910390f35b6040805190810160405280838152602001828152506001846040518082805190602001908083835b6020831015156104a3578051825260208201915060208101905060208303925061047e565b6001836020036101000a038019825116818451168082178552505050505050905001915050908152602001604051809103902060008201518160000190805190602001906104f2929190610757565b50602082015181600101908051906020019061050f929190610757565b50905050505050565b6000809054906101000a900473ffffffffffffffffffffffffffffffffffffffff1681565b6060806001836040518082805190602001908083835b6020831015156105785780518252602082019150602081019050602083039250610553565b6001836020036101000a03801982511681845116808217855250505050505090500191505090815260200160405180910390206000018054600181600116156101000203166002900480601f0160208091040260200160405190810160405280929190818152602001828054600181600116156101000203166002900480156106425780601f1061061757610100808354040283529160200191610642565b820191906000526020600020905b81548152906001019060200180831161062557829003601f168201915b505050505091506001836040518082805190602001908083835b602083101515610681578051825260208201915060208101905060208303925061065c565b6001836020036101000a03801982511681845116808217855250505050505090500191505090815260200160405180910390206001018054600181600116156101000203166002900480601f01602080910402602001604051908101604052809291908181526020018280546001816001161561010002031660029004801561074b5780601f106107205761010080835404028352916020019161074b565b820191906000526020600020905b81548152906001019060200180831161072e57829003601f168201915b50505050509050915091565b828054600181600116156101000203166002900490600052602060002090601f016020900481019282601f1061079857805160ff19168380011785556107c6565b828001600101855582156107c6579182015b828111156107c55782518255916020019190600101906107aa565b5b5090506107d391906107d7565b5090565b6107f991905b808211156107f55760008160009055506001016107dd565b5090565b9056fea165627a7a723058208ad07b17cf878d21fbb4e996b30d456507a2e4f456a3cc9e3b46b9be0d6a2cc90029",
  "source": "pragma solidity ^0.5.0;\n\n\ncontract HumanInfo {\n  address public owner;\n\n  constructor() public {\n    owner = msg.sender;\n  }\n\n  struct Human {\n    string info;\n    string sign;\n  }\n\n  mapping (string => Human) private humanList;\n\n  function addHuman(string memory _publicKey, string memory _info, string memory _sign) public {\n    // require(humanList[_publicKey]._sign == 0);\n    humanList[_publicKey] = Human(_info, _sign);\n  }\n\n  function getHuman(string memory _publicKey) public view returns (string memory _info, string memory _sign) {\n    // require(humanList[_account].age != 0);\n    _info = humanList[_publicKey].info;\n    _sign = humanList[_publicKey].sign;\n  }\n}\n",
  "sourcePath": "C:/Users/db20170425/Desktop/identification/contract/HumanInfo.sol",
  "compiler": {
    "name": "solc",
    "version": "0.5.0+commit.1d4f565a.Emscripten.clang"
  },
  "schemaVersion": "3.0.9",
  "updatedAt": "2019-05-13T01:38:51.651Z",
  "devdoc": {
    "methods": {}
  },
  "userdoc": {
    "methods": {}
  }
}